:020000040800F2
:100000000020002069020008B5020008B5020008BF
:1000100000000000000000000000000000000000E0
:10002000000000000000000000000000492000085F
:10003000000000000000000051210008A12100087C
:10004000B5020008B5020008B5020008B5020008B4
:10005000B5020008C50A0008B5020008B50200088C
:10006000B5020008B5020008B5020008B502000894
:10007000B5020008B5020008B5020008B502000884
:10008000B5020008B502000800000000B502000833
:10009000B5020008B5020008B5020008B502000864
:1000A000B5020008B5020008B5020008B502000854
:1000B000B502000800000000B502000800000000C2
:1000C0005FF808F180B500AF01F0FAFCBD4680BDD5
:1000D00080B582B000AF78600A1CFB1C1A70FB1C54
:1000E0001B78002B06D0084B074A51697A680A43EF
:1000F0005A6106E0044B044A52697968C9430A40D0
:100100005A61BD4602B080BD0010024080B582B089
:1001100000AF78600A1CFB1C1A70FB1C1B78002BBC
:1001200006D0084B074A91697A680A439A6106E04B
:10013000044B044A92697968C9430A409A61BD46F2
:1001400002B080BD0010024080B584B000AF78607E
:10015000012002F051FE031CFB60FB6803221A70B1
:100160000323181CBD4604B080BDC04680B584B0D2
:1001700000AF78607B681B68FB60FB6802221A7026
:100180000223181CBD4604B080BDC04680B584B0B3
:1001900000AF78607B681B68FB600423181CBD46B9
:1001A00004B080BD90B587B002AF786039601E237F
:1001B000FB60FB680120191C002202F075F8021C8C
:1001C0007B685A607B685B683A68101C191C01F0F8
:1001D00057FD7B685B68002B0CD008493A687C6847
:1001E0000123009300230193081C111C6422231C8B
:1001F00000F0C4FCBD4605B090BDC0460102000839
:1002000080B58CB000AF78607B68FB62FB6A5A688F
:100210000C23FB185A600C23FB18181C00F00CF977
:10022000FB6A9B68FA6A0C217918081C111C984714
:10023000FA235B00181C00F0D1FDECE780B500AF9D
:10024000FFF740FF02F0E0FC00F048FCFEE7C0468C
:1002500080B500AF72B6FEE780B582B000AF7860BF
:10026000396072B6FEE7C0460C488546002103E0BF
:100270000B4B5B58435004310A480B4B42189A42CF
:10028000F6D30A4A02E0002313600432084B9A4274
:10029000F9D301F015FCFFF7D1FFFEE700200020A5
:1002A00024340008000000206800002068000020BE
:1002B000E01B0020FEE7000080B584B000AF78604E
:1002C000342002F099FD031CFB60FB6803221A70C6
:1002D0007B68FA681A600323181CBD4604B080BD11
:1002E00080B584B000AF78607B681B68FB60FB68FA
:1002F000191D0D4B1A6880235B00081C191C00F0A7
:1003000065F8FB681C33191C084B1A6880239B0096
:10031000081C191C00F05AF8FB6802221A7002230C
:10032000181CBD4604B080BD4C00002050000020C9
:1003300080B58CB000AF78607B681B68FB62FB6A9D
:100340001A1D204B1B68101C191CFFF72BFFFB6AA2
:100350001C331A1C1C4B1B68101C191CFFF722FFB6
:100360000C23FB1801221A81164B1B68181C00F085
:1003700075F8021C0C23FB185A60134B1B68181CE1
:1003800000F06CF8021C0C23FB181A600823FB1801
:1003900000221A800823FB1802221A800C23FB1863
:1003A0000A331A1C0823FB18101C191C02F0C2FF88
:1003B0000C23FB18181C00F02FF80423181CBD4652
:1003C0000CB080BD4C0000205000002080B584B0EF
:1003D00000AFF8607A600A23FB180A1C1A80FB68D9
:1003E0000A22BA1812889A81FB68094A1A61FB68C6
:1003F00000221A75FB6801221A75FB680C331A1C5F
:10040000FB681A60FB68034A9A60BD4604B080BD71
:10041000000800484D2D000880B582B000AF78601C
:100420007B681A687B68101C191C0022002301F0ED
:1004300093FFBD4602B080BD80B582B000AF78604A
:100440007B6859687A6801235B42081C111C1A1CDE
:10045000002302F0C1F8BD4602B080BD80B582B075
:1004600000AF78607B68181C01F03CFC031C181C72
:10047000BD4602B080BDC04680B584B002AF002347
:100480007B6000F06BFA0E4B1B68002B0DD00D4902
:100490000D4A022300930D4B0193081C111C50229E
:1004A000002300F06BFB031C7B607B68002B01D1F9
:1004B00072B6FEE77B68181CBD4602B080BDC04620
:1004C00098000020ED050008AC3300089C000020D7
:1004D00080B588B000AFF860B9607A603B600023F7
:1004E000FB61FB68002B01D172B6FEE7224B1B6853
:1004F000002B3BD01023FB18BA681A601023FB189E
:100500007A685A601023FB18FA689A60BB68052B5A
:100510001FDC01F063F8031E022B0DD1164B196886
:100520001023FA18BB6A081C111C1A1C002301F0C6
:1005300013FF031CFB6119E00F4B1A681023FB1813
:10054000101C191C0022002301F006FF031CFB6194
:100550000CE0094B19681023FA183B68081C111CA1
:100560001A1C002301F0C4FF031CFB61FB69181C6B
:10057000BD4608B080BDC0469800002080B586B05A
:1005800002AF78603960184B1B68DB68DB68FB6082
:10059000FB680433181C01F0F9FCFB68DB69012BD4
:1005A0001AD1FB689A697B68D118F8683A687B6849
:1005B00000F0B6F8031E0FD0F9687A6800230093A4
:1005C000081C00210023FFF783FF031CBB60BB68EE
:1005D000002B01D172B6FEE7FB685B6AFA68101C5B
:1005E0009847BD4604B080BD9000002080B584B01F
:1005F00000AF78600823FB18181C00F051F8031CAA
:10060000FB60BB68FA68101C191C00F003F800F0CE
:10061000C9F8EFE780B584B000AF7860396000F0CA
:100620003FFC0823FB18181C00F05AF8031CFB6061
:10063000BB68002B2BD13B68002B0CD17A68FB6880
:100640009A4208D800F038FC7A68FB68101C191C24
:10065000FFF794FF1DE03B68002B06D00E4B1B6894
:100660001B685A425341DBB23B600C4B19687A68F5
:10067000FB68D21A3B68081C111C1A1C02F0E0F936
:1006800000F01AFC031E04D101F024FD01E000F08B
:1006900013FCBD4604B080BD9400002098000020EB
:1006A00080B584B000AF78600C4B1B681B685A4261
:1006B0005341DBB21A1C7B681A607B681B68002BF5
:1006C00005D1064B1B68DB681B68FB6001E000235B
:1006D000FB60FB68181CBD4604B080BD9000002084
:1006E00080B584B000AF786000F072FC031CFB6042
:1006F0000A4B1B68FA689A4205D200F0D5F87B686D
:1007000001221A6002E07B6800221A60034BFA683B
:100710001A60FB68181CBD4604B080BDA000002014
:1007200080B586B000AFF860B9607A603B600023A6
:100730007B61FB68BA685A60FB68FA681A61BA683C
:100740007B689A4212D87A683B68D21AFB689B6928
:100750009A4202D301237B611BE0104B1A68FB68AD
:100760000433101C191C01F0DBFB12E07A683B68B3
:100770009A4206D2BA683B689A4202D301237B614F
:1007800007E0074B1A68FB680433101C191C01F0C2
:10079000C7FB7B69181CBD4606B080BD94000020D5
:1007A0009000002080B58AB002AF6AE00823FB18F1
:1007B0001B68002B65DB0823FB189B68FB61FB694A
:1007C0005B69002B04D0FB690433181C01F0DEFBCD
:1007D0003B1D181CFFF784FF031CBB610823FB189B
:1007E0001B68092B4CD89A002D4BD3181B689F46C9
:1007F0000823FB185A68FB699B69D1180823FB186A
:100800005B68F869BA69FFF78BFF031E1DD0FB69AF
:100810005B6AFA69101C9847FB69DB69012B14D1EC
:100820000823FB185A68FB699B69D218F9690023F1
:100830000093081C00210023FFF74AFE031C7B6184
:100840007B69002B01D172B6FEE71AE00823FB1882
:100850005A68FB699A61FB699B69002B01D172B6EA
:10086000FEE7FB699A69BB69D118F869BA69BB6987
:10087000FFF756FF05E0FB69181C02F04FFB00E094
:10088000C046084B1A680823FB18101C191C0022CC
:10089000002301F0A1FE031E88D1BD4608B080BD33
:1008A000B43300089800002080B588B002AF3FE064
:1008B000284B1B68DB681B687B61264B1B68DB6869
:1008C000DB683B613B690433181C01F05FFB3B694B
:1008D0005B6A3A69101C98473B69DB69012B27D199
:1008E0003B699A697B69D318FB60FA687B699A4215
:1008F0000ED93B69FA685A603B693A691A61154B2F
:100900001A683B690433101C191C01F009FB0FE045
:1009100039697A6900230093081C00210023FFF73E
:10092000D7FD031CBB60BB68002B01D172B6FEE78C
:10093000084B1B681B68002BBAD1064B1B687B60F9
:10094000054B1A68034B1A60034B7A681A60BD4660
:1009500006B080BD900000209400002080B500AF5C
:1009600001F0C6FB144B1B68002B20D1134B181C45
:1009700001F08CFA124B181C01F088FA114B0F4A47
:100980001A60114B0E4A1A6005200C21002201F05A
:100990008BFC021C084B1A60074B1B68002B06D00F
:1009A000054B1A68094B101C191C02F023F801F0C2
:1009B000AFFBBD4680BDC046980000206800002007
:1009C0007C0000209000002094000020DC33000810
:1009D00080B500AF00F004F800F026F8BD4680BDF9
:1009E00080B582B000AF80231B03181C0121FFF7E4
:1009F0006FFB3B1CC02292001A603B1C01221A7143
:100A00003B1C00225A713B1C00229A713B1C0022A5
:100A1000DA71044A3B1C101C191C01F089F9BD460F
:100A200002B080BD0008004880B586B000AF8023CA
:100A30009B02181C0121FFF74BFB0823FB18012226
:100A40001A600823FB1800221A710823FB180022E1
:100A5000DA719023DA050823FB18101C191C01F029
:100A600067F901200121FFF751FB0020002102F06E
:100A700025F91023FB1801221A601023FB1800220D
:100A80001A711023FB180C225A711023FB18012233
:100A90009A711023FB18181C02F00AF83B1D05225E
:100AA0001A703B1D00225A703B1D01229A703B1D9B
:100AB000181C02F091FA012002F06AF8BD4606B057
:100AC00080BDC04680B500AF012002F071F8031E62
:100AD00002D0012002F08CF8BD4680BD80B582B006
:100AE00000AF00237B6001F0A1F817E07B681A01DA
:100AF0000F4BD318181C00F01DF87B681A010C4B23
:100B0000D318181C00F022F87B681A01084BD31880
:100B1000181C00F027F87B6801337B60044B7A686F
:100B20001201D3581B78052BE0D100F07BF9FEE7CA
:100B30000400002080B582B000AF78607B685B68FD
:100B40007A68101C9847BD4602B080BD80B582B05F
:100B500000AF78607B689B687A68101C9847BD4638
:100B600002B080BD80B582B000AF78607B68DB6882
:100B70007A68101C9847BD4602B080BD90B58DB014
:100B800004AFF860B9603B60BB1D1A80BB1D1B88B9
:100B90009B00181C02F030F9031C7B617B69002B61
:100BA00010D0582002F028F9031CFB61FB69002BD0
:100BB00003D0FB697A691A6306E07B69181C02F0AE
:100BC000ADF901E00023FB61FB69002B16D0BB1DD2
:100BD0001A88F868B9683C683B6B00937B6B01939B
:100BE000FB69029300230393231C00F00FF8FB69B9
:100BF000181C00F08DF80123BB6102E001235B4269
:100C0000BB61BB69181CBD4609B090BD80B586B0FC
:100C100000AFF860B9607A603B60BB6A1A6B7B68B2
:100C20009B00101CA5211A1C02F0FAFABB6A1A6B71
:100C30007B6836498C4663449B00D3183B613B6913
:100C4000072293433B613B690722134001D072B6F0
:100C5000FEE700237B6114E0BA687B69D31818783B
:100C6000BA6A30217B69D3185B18021C1A71BA6802
:100C70007B69D3181B78002B00D105E07B69013319
:100C80007B617B69092BE7D9BB6A3D22002199541E
:100C90003B6A042B01D904233B62BB6A3A6ADA62DD
:100CA000BB6A3A6A9A64BB6A0022DA64BB6A04339C
:100CB000181C01F009F9BB6A1833181C01F004F97B
:100CC000BB6ABA6A1A613B6A0522D21ABB6A9A6188
:100CD000BB6ABA6A5A62BB6A00221A65BB6A5422AE
:100CE000002199543969FA683B68081C111C1A1CC8
:100CF00001F074F9021CBB6A1A607B6A002B02D0F7
:100D00007B6ABA6A1A60BD4606B080BDFFFFFF3F2E
:100D100080B582B000AF786001F0EAF9294B1B681A
:100D20005A1C284B1A60284B1B68002B09D1264BF4
:100D30007A681A60234B1B68012B10D100F09EFBD0
:100D40000DE0224B1B68002B09D11F4B1B68DA6A90
:100D50007B68DB6A9A4202D81B4B7A681A601C4B8C
:100D60001B685A1C1A4B1A60194B1A687B681A6464
:100D70007B68DA6A174B1B689A4203D97B68DA6A88
:100D8000144B1A607B68DA6A131C9B009B189B004B
:100D9000114A9A187B680433101C191C01F09EF844
:100DA00001F0B6F9094B1B68002B08D0064B1B68F5
:100DB000DA6A7B68DB6A9A4201D201F08BF9BD46A0
:100DC00002B080BD7C010020A4000020880100202A
:100DD0009801002084010020A800002080B584B084
:100DE00000AF78600023FB607B68002B10D00C4BB9
:100DF0001B68002B01D072B6FEE700F051F87B684B
:100E0000181C002100F008FE00F056F8031CFB60DF
:100E1000FB68002B01D101F05DF9BD4604B080BD37
:100E2000A401002080B584B002AF1749174A0023FF
:100E30000093174B0193081C111C64220023FFF739
:100E40009DFE031C7B607B68012B03D1FFF714FB25
:100E5000031C7B607B68012B0DD172B60D4B012208
:100E600052421A600C4B01221A600C4B00221A608D
:100E700001F00EF904E07B68013301D172B6FEE7A0
:100E8000BD4602B080BDC0465D140008E4330008D2
:100E9000A00100209C01002088010020800100208A
:100EA00080B500AF034B1B685A1C024B1A60BD464D
:100EB00080BDC046A401002080B584B000AF0023EF
:100EC000FB600023BB603A4B1B68002B01D172B65C
:100ED000FEE701F00DF9364B1B685A1E344B1A60C1
:100EE000334B1B68002B5BD1324B1B68002B57D058
:100EF0002FE0314BDB68DB68FB60FB681833181CA4
:100F000001F044F8FB680433181C01F03FF8FB685B
:100F1000DA6A2A4B1B689A4203D9FB68DA6A274BC4
:100F20001A60FB68DA6A131C9B009B189B00244A1A
:100F30009A18FB680433101C191C00F0CFFFFB68E3
:100F4000DA6A204B1B68DB6A9A4202D31E4B0122ED
:100F50001A60194B1B68002BCBD1FB68002B01D00A
:100F600000F01AFB194B1B687B607B68002B0FD0CD
:100F700000F03CF8031E02D0134B01221A607B687C
:100F8000013B7B607B68002BF2D1104B00221A6082
:100F90000D4B1B68002B03D00123BB6001F09AF8B6
:100FA00001F0B6F8BB68181CBD4604B080BDC04651
:100FB000A40100207C0100203C01002084010020CD
:100FC000A8000020A4000020900100208C01002037
:100FD00080B582B000AF044B1B687B607B68181C37
:100FE000BD4602B080BDC0468001002080B586B0FD
:100FF00000AF00237B614C4B1B68002B00D083E0CB
:101000004A4B1B6801333B61484B3A691A603B69A4
:10101000002B17D1464B1B681B68002B01D072B602
:10102000FEE7434B1B68FB60424B1A68404B1A605B
:10103000404BFA681A60404B1B685A1C3E4B1A60C2
:1010400000F0AAFA3D4B1B683A699A424ED3384BDE
:101050001B681B68002B01D1012300E00023002B3B
:1010600004D0364B012252421A603FE0304B1B68DD
:10107000DB68DB68BB60BB685B687B603A697B6888
:101080009A4203D22D4B7A681A602FE0BB68043372
:10109000181C00F07BFFBB689B6A002B04D0BB6868
:1010A0001833181C00F072FFBB68DA6A244B1B6807
:1010B0009A4203D9BB68DA6A214B1A60BB68DA6AC4
:1010C000131C9B009B189B001E4A9A18BB68043394
:1010D000101C191C00F002FFBB68DA6A1A4B1B686F
:1010E000DB6A9A4201D301237B61B0E7164B1B6890
:1010F000DA6A1449131C9B009B189B005B58012B58
:1011000001D901237B6104E0104B1B685A1C0F4B73
:101110001A600F4B1B68002B01D001237B617B6998
:10112000181CBD4606B080BDA4010020800100202F
:101130003401002038010020940100209C0100208F
:1011400084010020A8000020A40000208C010020C1
:101150009001002080B584B000AF344B1B68002B99
:1011600003D0334B01221A605DE0314B00221A603C
:10117000304B1B681B6BBB602F4B7B60BB681A68D6
:101180007B689A4211D1BB6804331A687B689A4223
:101190000BD1BB6808331A687B689A4205D1BB68DB
:1011A0000C331A687B689A4208D0224B1A68214B8C
:1011B0001B683433101C191CFFF74EF81F4B1B68BB
:1011C000FB6007E0FB68002B01D172B6FEE7FB680D
:1011D000013BFB601A49FA68131C9B009B189B009B
:1011E0005B58002BEED0FA68131C9B009B189B00E9
:1011F000134A9B183B603B685B685A683B685A60BF
:101200003B685A683B6808339A4204D13B685B6884
:101210005A683B685A603B685B68DA68054B1A603D
:10122000064BFA681A60BD4604B080BDA4010020D8
:1012300090010020A4000020A5A5A5A58401002000
:10124000A800002080B582B000AF786039607B686C
:10125000002B01D172B6FEE7074B1B6818337A6882
:10126000101C191C00F05CFE3B68181C012100F0EA
:10127000D3FBBD4602B080BDA400002080B584B081
:1012800000AFF860B9607A60FB68002B01D172B6DC
:10129000FEE70B4B1B681833FA68101C191C00F092
:1012A0001DFE7B68002B02D001235B42BB60BA6845
:1012B0007B68101C191C00F0AFFBBD4604B080BD5C
:1012C000A400002080B584B000AF78607B68DB6844
:1012D000DB68BB60BB68002B01D172B6FEE7BB6860
:1012E0001833181C00F052FE1E4B1B68002B1DD13A
:1012F000BB680433181C00F049FEBB68DA6A1A4B5D
:101300001B689A4203D9BB68DA6A174B1A60BB683C
:10131000DA6A131C9B009B189B00144A9A18BB683E
:101320000433101C191C00F0D9FD06E0BB6818330B
:101330000F4A101C191C00F0D1FDBB68DA6A0D4B76
:101340001B68DB6A9A4205D90123FB600A4B012224
:101350001A6001E00023FB60FB68181CBD4604B066
:1013600080BDC046A401002084010020A800002008
:101370003C010020A40000209001002080B582B034
:1013800000AF78607B68002B01D172B6FEE7054B99
:101390001A687B681A60044B1A687B685A60BD46FD
:1013A00002B080BD940100208001002080B584B08F
:1013B00000AF786039607B68002B01D172B6FEE720
:1013C0003B68002B01D172B6FEE700F091FE1C4B8A
:1013D0001B68BB603B681B68013302D10023FB60C4
:1013E00027E07B681A68174B1B689A4207D07B6816
:1013F0005A68BB689A4202D80123FB6019E07B68F7
:101400005B68BA68D21A3B681B689A420FD23B6885
:101410001A687B685968BB68CB1AD2183B681A6097
:101420007B68181CFFF7AAFF0023FB6001E0012383
:10143000FB6000F06DFEFB68181CBD4604B080BD6B
:10144000800100209401002080B500AF024B0122F2
:101450001A60BD4680BDC0469001002080B582B0B4
:1014600000AF786000F04EF8034B1B68012B01D9E8
:1014700000F030FEF6E7C046A800002080B582B03C
:1014800000AF00237B600CE07A68131C9B009B1864
:101490009B00144A9B18181C00F0F8FC7B68013371
:1014A0007B607B68042BEFD90F4B181C00F0EEFC1F
:1014B0000E4B181C00F0EAFC0D4B181C00F0E6FC6B
:1014C0000C4B181C00F0E2FC0B4B181C00F0DEFC6F
:1014D0000A4B054A1A600A4B044A1A60BD4602B01C
:1014E00080BDC046A80000200C0100202001002083
:1014F0003C01002050010020680100203401002040
:101500003801002080B582B000AF27E0FFF7C8FCAB
:10151000164B1B685A425341DBB27B60FFF7CCFC91
:101520007B68002B1AD100F0E3FD104BDB68DB6811
:101530003B603B680433181C00F028FD0C4B1B6813
:101540005A1E0B4B1A600B4B1B685A1E094B1A6034
:1015500000F0DEFD3B68181C00F00EF8054B1B6820
:10156000002BD3D1BD4602B080BDC0465001002043
:101570007C0100206401002080B582B000AF78605B
:101580007B681B6B181C01F0C9FC7B68181C01F000
:10159000C5FCBD4602B080BD80B582B000AF0D4B2A
:1015A0001B681B68002B01D1012300E00023002BE6
:1015B00004D0094B012252421A6008E0054B1B6817
:1015C000DB68DB687B607B685A68034B1A60BD464A
:1015D00002B080BD340100209C01002080B582B0A3
:1015E00000AF0A4B1B68002B02D101237B6008E08F
:1015F000074B1B68002B02D102237B6001E0002314
:101600007B607B68181CBD4602B080BD880100204D
:10161000A401002080B584B000AF78607B68FB60D7
:101620007B68002B4AD0FB68DA6A264B1B68DB6AB2
:101630009A4243D2FB689B69002B06DB214B1B6857
:10164000DB6A0522D21AFB689A61FB685969FB685C
:10165000DA6A131C9B009B189B001B4A9B1899423B
:1016600001D1012300E00023002B22D0FB680433CA
:10167000181C00F08BFC134B1B68DA6AFB68DA62FB
:10168000FB68DA6A114B1B689A4203D9FB68DA6A75
:101690000E4B1A60FB68DA6A131C9B009B189B00B8
:1016A000094A9A18FB680433101C191C00F016FC38
:1016B00004E0044B1B68DA6AFB68DA62BD4604B0DA
:1016C00080BDC046A4000020A800002084010020A6
:1016D00080B584B000AF78607B68BB600023FB609E
:1016E0007B68002B44D0254B1B68BA689A4201D016
:1016F00072B6FEE7BB68DB6C002B01D172B6FEE769
:10170000BB68DB6C5A1EBB68DA64BB68DA6ABB680C
:101710009B6C9A422CD0BB68DB6C002B28D1BB6839
:101720000433181C00F032FCBB689A6CBB68DA62A8
:10173000BB68DB6A0522D21ABB689A61BB68DA6AA9
:101740000F4B1B689A4203D9BB68DA6A0C4B1A60CC
:10175000BB68DA6A131C9B009B189B00094A9A1805
:10176000BB680433101C191C00F0B8FB0123FB609C
:10177000FB68181CBD4604B080BDC046A400002014
:1017800084010020A800002080B500AF064B1B6834
:10179000002B04D0044B1B68DA6C0132DA64024B74
:1017A0001B68181CBD4680BDA400002080B588B011
:1017B00000AFF860B9603B60FB1D1A700123FB614C
:1017C000FB68002B01D172B6FEE7FB68BB6100F03D
:1017D0008FFC3B68002B03D0BB691A6D3B681A6015
:1017E0001723FB18BA695421525C1A70BB69542242
:1017F00002219954FB1D1B78042B22D89A002D4BF3
:10180000D3181B689F46BB691A6DBB681A43BB6936
:101810001A6516E0BB691B6D5A1CBB691A6510E09E
:10182000BB69BA681A650CE01723FB181B78022BFA
:1018300003D0BB69BA681A6503E00023FB6100E0CE
:10184000C0461723FB181B78012B2BD1BB6904332F
:10185000181C00F09BFBBB69DA6A174B1B689A42A5
:1018600003D9BB69DA6A144B1A60BB69DA6A131CC4
:101870009B009B189B00114A9A18BB690433101CEB
:10188000191C00F02BFBBB699B6A002B01D072B6C0
:10189000FEE7BB69DA6A0A4B1B68DB6A9A4201D928
:1018A00000F018FC00F034FCFB69181CBD4608B0C1
:1018B00080BDC046EC33000884010020A800002051
:1018C000A400002080B588B000AFF860B9603B602C
:1018D000FB1D1A700123FB61FB68002B01D172B65E
:1018E000FEE7FB68BB6100F029FC031C7B613B68E1
:1018F000002B03D0BB691A6D3B681A601323FB18D9
:10190000BA695421525C1A70BB695422022199545D
:10191000FB1D1B78042B22D89A00384BD3181B6868
:101920009F46BB691A6DBB681A43BB691A6516E00E
:10193000BB691B6D5A1CBB691A6510E0BB69BA68AC
:101940001A650CE01323FB181B78022B03D0BB692C
:10195000BA681A6503E00023FB6100E0C046132368
:10196000FB181B78012B3FD1BB699B6A002B01D070
:1019700072B6FEE7224B1B68002B1DD1BB690433F6
:10198000181C00F003FBBB69DA6A1E4B1B689A4205
:1019900003D9BB69DA6A1B4B1A60BB69DA6A131C8C
:1019A0009B009B189B00184A9A18BB690433101CB3
:1019B000191C00F093FA06E0BB691833134A101C97
:1019C000191C00F08BFABB69DA6A114B1B68DB6AE1
:1019D0009A4209D9BB6A002B03D0BB6A01221A6064
:1019E00002E00C4B01221A607B69181C00F0ACFB72
:1019F000FB69181CBD4608B080BDC0460034000815
:101A0000A401002084010020A80000203C01002047
:101A1000A40000209001002080B584B000AF786061
:101A20003960214B1B68FB60204B1B680433181C7A
:101A300000F0ACFA7B6801330BD13B68002B08D077
:101A40001A4B1B6804331A4A101C191C00F046FA82
:101A500026E0FA687B68D318BB60144B1B68BA6831
:101A60005A60BA68FB689A4209D2124B1A680F4B47
:101A70001B680433101C191C00F052FA10E00E4BC6
:101A80001A680A4B1B680433101C191C00F048FA32
:101A90000A4B1B68BA689A4202D2084BBA681A60AD
:101AA000BD4604B080BDC04680010020A4000020D7
:101AB0006801002038010020340100209C01002032
:101AC00080B500AF1B4B1B4A126801210A431A6004
:101AD000184B184A526818490A405A60154B154A63
:101AE000126816490A401A60124B124A12681449C9
:101AF0000A401A600F4B0F4A526812490A405A6056
:101B00000C4B0C4AD26A0F218A43DA62094B094A0C
:101B1000126B0D490A401A63064B064A526B0121AB
:101B20008A435A63034B00229A6000F00FF8BD46C7
:101B300080BDC046001002400CB8FFF8FFFFF6FE63
:101B4000FFFFFBFFFFFFC0FFACFEFFFF80B582B0D1
:101B500000AF00237B6000233B60314B304A1268AA
:101B6000802149020A431A602D4B1A6880239B0288
:101B700013403B607B6801337B603B68002B04D1E2
:101B80007A68A023DB019A42EED1254B1A688023A4
:101B90009B02134002D001233B6001E000233B6025
:101BA0003B68012B38D11F4B11221A601C4B1C4A79
:101BB00052685A601A4B1A4A52685A60184B184AAF
:101BC000526819490A405A60154B154A52688821D3
:101BD00049030A435A60124B114A12688021490492
:101BE0000A431A60C0460E4B1A6880239B041340B8
:101BF000F9D00B4B0A4A526803218A435A60084BBA
:101C0000074A526802210A435A60C046044B5B6887
:101C10000C221340082BF9D1BD4602B080BDC0464E
:101C20000010024000200240FFFFC0FF90B583B0CB
:101C300000AF00237B601AE07B681A010F4BD318BA
:101C40001C1D7B681A010D4BD3180433181C01F0BE
:101C500079FB031C201C00211A1C01F0E1FA074B40
:101C60007A6812010021D1507B6801337B607B6868
:101C7000072BE1D9BD4603B090BDC046A8010020A6
:101C800080B584B000AF786039600023FB6020E04D
:101C9000134BFA681201D358002B17D1FB681A01B5
:101CA0000F4BD31804331B78002B0FD10C4BFA6861
:101CB00012013968D150FB681A01094BD3181A1D5B
:101CC0007B68101C191C01F035FB05E0FB68013333
:101CD000FB60FB68072BDBD9BD4604B080BDC04666
:101CE000A801002080B584B000AF78600023FB60BD
:101CF00013E0FB681A010D4BD3181A1D7B68101CEA
:101D0000191C01F0D3FA031E04D1084BFA68120122
:101D1000D35806E0FB680133FB60FB68072BE8D96A
:101D20000023181CBD4604B080BDC046A801002099
:101D300080B586B000AF7860396000237B610023F6
:101D40003B610023FB6000237B617CE07B69012217
:101D50009A40131C3B613B681B683A691340FB6067
:101D6000FA683B699A426BD13B681B79012B03D01F
:101D70003B681B79022B34D17B689B687A695200DF
:101D8000111C03228A40D2431A407B689A607B6808
:101D90009A683B685B79191C7B695B0099400B1C56
:101DA0001A437B689A607B689B889BB27A6992B27F
:101DB000111C01228A4092B2D24392B213409AB2CD
:101DC0007B689A807B689B889AB23B689B79191CD8
:101DD0007B699BB299400B1C9BB213439AB27B6800
:101DE0009A807B681B687A695200111C03228A4022
:101DF000D2431A407B681A607B681A683B681B797B
:101E0000191C7B695B0099400B1C1A437B681A60A4
:101E10007B68DB687A6992B25200032191400A1C08
:101E2000D2431A407B68DA607B68DA683B68DB790A
:101E3000191C7B695B0099400B1C1A437B68DA60B4
:101E40007B6901337B617B690F2B00D87EE7BD4640
:101E500006B080BD80B582B000AF78600A1CBB1CA4
:101E60001A80BB1C1A887B689A61BD4602B080BD8F
:101E700080B582B000AF78600A1CBB1C1A807B68FA
:101E8000BA1C12881A85BD4602B080BD80B582B0EA
:101E900000AF78607B6808331A1C7B685A607B68E7
:101EA000012252429A607B6808331A1C7B68DA6010
:101EB0007B6808331A1C7B681A617B6800221A60F1
:101EC000BD4602B080BDC04680B582B000AF78602C
:101ED0007B6800221A61BD4602B080BD80B584B027
:101EE00000AF786039607B685B68FB603B68FA68CC
:101EF0005A60FB689A683B689A60FB689B683A681E
:101F00005A60FB683A689A603B687A681A617B6835
:101F10001B685A1C7B681A60BD4604B080BDC04671
:101F200080B584B000AF786039603B681B68BB60E7
:101F3000BB68013303D17B681B69FB600CE07B68E5
:101F40000833FB6002E0FB685B68FB60FB685B6872
:101F50001A68BB689A42F6D9FB685A683B685A60AF
:101F60003B685B683A689A603B68FA689A60FB680D
:101F70003A685A603B687A681A617B681B685A1C29
:101F80007B681A60BD4604B080BDC04680B584B091
:101F900000AF78607B681B69FB607B685B687A6870
:101FA00092689A607B689B687A6852685A60FB689E
:101FB0005A687B689A4203D17B689A68FB685A60CA
:101FC0007B6800221A61FB681B685A1EFB681A6056
:101FD000FB681B68181CBD4604B080BD80B584B08A
:101FE00000AFF860B9607A60FB68043BFB60FB6897
:101FF000802252041A60FB68043BFB60BA68FB68ED
:102000001A60FB68043BFB60084AFB681A60FB68C7
:10201000143BFB607A68FB681A60FB68203BFB603E
:10202000FB68181CBD4604B080BDC04631200008C6
:1020300080B500AF034B1B68013301D072B6FEE7D9
:1020400072B6FEE74800002080B500AFBD4680BDF7
:102050000B4A13681868203080F30988022080F347
:102060001488BFF36F8F3FBCAE4608BC04BC62B699
:102070001847C046C046C046C046C046C046C046D7
:10208000A4000020C046C046C046C046C046C04668
:1020900080B500AF0D4B0D4A1268FF2109040A43B9
:1020A0001A600A4B094A1268FF2109060A431A609E
:1020B00000F08EF8064B00221A60FFF7C9FFFFF709
:1020C000B7FF0023181CBD4680BDC04620ED00E0D0
:1020D0004800002080B500AF044B802252051A60F2
:1020E000BFF34F8FBFF36F8FBD4680BD04ED00E09F
:1020F00080B500AF72B6054B1B685A1C034B1A60C3
:10210000BFF34F8FBFF36F8FBD4680BD48000020E7
:1021100080B500AF084B1B68002B01D172B6FEE7FB
:10212000054B1B685A1E044B1A60034B1B68002B9F
:1021300000D162B6BD4680BD48000020EFF310809C
:1021400072B670470023181C80F310887047C04691
:10215000EFF309800E4B1A6820381060F0C0444637
:102160004D4656465F46F0C008B572B6FEF7F2FF20
:1021700062B60CBC116808681030F0C8A046A946C9
:10218000B246BB4680F309882038F0C81847C046DD
:10219000A4000020C046C046C046C046C046C04657
:1021A00080B582B000AFFFF7C9FF031C7B60FEF76C
:1021B0001DFF031E03D0054B802252051A607B6869
:1021C000181CFFF7C1FFBD4602B080BD04ED00E062
:1021D00098B500AF074C084B1B68181CFA239900F0
:1021E00000F04EFF031C013B2360044B07221A60E2
:1021F000BD4698BD14E000E03400002010E000E08F
:1022000080B584B000AF786039607B68FB60FB68A4
:10221000002B01D172B6FEE7FFF76AFFFB681A6870
:10222000FB68D96BFB681B6C4B43D218FB685A6088
:10223000FB6800229A63FB681A68FB689A60FB6877
:102240001A68FB68DB6B591EFB681B6C4B43D2188A
:10225000FB68DA60FB684422FF219954FB68452241
:10226000FF2199543B68002B0DD1FB681B69002BA3
:1022700013D0FB681033181CFFF724F8031E0CD092
:10228000FFF728FF09E0FB681033181CFFF7FEFD7D
:10229000FB682433181CFFF7F9FDFFF739FF012312
:1022A000181CBD4604B080BD90B58BB002AFF8607D
:1022B000B960FB1D1A70FB68002B01D172B6FEE7F6
:1022C000BB68002B02D10023FB6103E0FB68BA6806
:1022D0005343FB61FB695033181C00F08DFD031C58
:1022E000BB61BB69002B0CD0BB6950337B61F868C4
:1022F000B9687A69FB1D1C78BB690093231C00F048
:1023000005F8BB69181CBD4609B090BD80B584B006
:1023100000AFF860B9607A601A1CFB1C1A70BB68C9
:10232000002B03D1BB69BA691A6002E0BB697A6805
:102330001A60BB69FA68DA63BB69BA681A64BB6978
:10234000181C0121FFF75CFFBB69FA1C4C211278B5
:102350005A54BD4604B080BD80B58AB000AFF86065
:10236000B9607A603B6000237B62FB683B623B6A3A
:10237000002B01D172B6FEE7BB68002B03D13B6A8C
:102380001B6C002B01D1012300E00023002B01D1A5
:1023900072B6FEE73B68022B03D13B6ADB6B012B75
:1023A00001D1012300E00023002B01D172B6FEE72A
:1023B000FFF714F9031E02D17B68002B01D1012322
:1023C00000E00023002B01D172B6FEE7FFF790FE7C
:1023D0003B6A9A6B3B6ADB6B9A4202D33B68022BE7
:1023E00020D1396ABA683B68081C111C1A1C00F01D
:1023F000DBF9031CFB613B6A5B6A002B09D03B6A7B
:102400002433181CFEF75EFF031E07D0FFF762FEA1
:1024100004E0FB69002B01D0FFF75CFEFFF778FEBC
:10242000012360E07B68002B03D1FFF771FE0023DE
:1024300059E07B6A002B06D11423FB18181CFEF709
:102440009DFF01237B62FFF763FEFEF729FDFFF787
:102450004FFE3B6A44229B5CDBB25BB2013303D18B
:102460003B6A4422002199543B6A45229B5CDBB2C3
:102470005BB2013303D13B6A452200219954FFF737
:1024800047FE1423FA183B1D101C191CFEF78EFF83
:10249000031E1FD13B6A181C00F094FA031E12D0D1
:1024A0003B6A10331A1C7B68101C191CFEF7CAFE0D
:1024B0003B6A181C00F010FAFEF7FEFC031E11D157
:1024C000FFF708FE0EE03B6A181C00F005FAFEF765
:1024D000F3FC7BE73B6A181C00F0FEF9FEF7ECFC0E
:1024E000002300E072E7181CBD460AB080BDC0465C
:1024F00080B588B000AFF860B9607A603B60FB6877
:10250000BB61BB69002B01D172B6FEE7BB68002B33
:1025100003D1BB691B6C002B01D1012300E0002318
:10252000002B01D172B6FEE73B68022B03D1BB69D9
:10253000DB6B012B01D1012300E00023002B01D133
:1025400072B6FEE7FFF7FAFD031C7B61BB699A6B6D
:10255000BB69DB6B9A4202D33B68022B31D1132358
:10256000FB18BA694521525C1A70B969BA683B68B0
:10257000081C111C1A1C00F017F91323FB181B78F8
:102580005BB2013311D1BB695B6A002B16D0BB690A
:102590002433181CFEF796FE031E0FD07B68002B19
:1025A0000CD07B6801221A6008E01323FB181B780B
:1025B0000133DBB2D9B2BB69452299540123FB61D7
:1025C00001E00023FB617B69181CFFF7BDFDFB697F
:1025D000181CBD4608B080BD80B58AB000AFF86059
:1025E000B9607A603B6000237B62FB683B623B6AB8
:1025F000002B01D172B6FEE7BB68002B03D13B6A0A
:102600001B6C002B01D1012300E00023002B01D122
:1026100072B6FEE7FEF7E2FF031E02D17B68002BD5
:1026200001D1012300E00023002B01D172B6FEE7A7
:10263000FFF75EFD3B6A9B6BFB61FB69002B3AD0A9
:102640003B6ADB68BB613A6ABB68101C191C00F06E
:102650001BF93B68002B1AD1FB695A1E3B6A9A632F
:102660003B6A1B68002B04D1FFF78EF8021C3B6A03
:102670005A603B6A1B69002B19D03B6A1033181C47
:10268000FEF720FE031E12D0FFF724FD0FE03B6A89
:10269000BA69DA603B6A5B6A002B08D03B6A243374
:1026A000181CFEF70FFE031E01D0FFF713FDFFF706
:1026B0002FFD012373E07B68002B03D1FFF728FD7A
:1026C00000236CE07B6A002B06D11023FB18181C3A
:1026D000FEF754FE01237B62FFF71AFDFEF7E0FBD5
:1026E000FFF706FD3B6A44229B5CDBB25BB2013321
:1026F00003D13B6A4422002199543B6A45229B5CEA
:10270000DBB25BB2013303D13B6A4522002199540D
:10271000FFF7FEFC1023FA183B1D101C191CFEF7D6
:1027200045FE031E2CD13B6A181C00F035F9031E30
:102730001FD03B6A1B68002B08D1FFF7D9FC3B6A0E
:102740005B68181CFEF766FFFFF7E2FC3B6A243368
:102750001A1C7B68101C191CFEF774FD3B6A181CC0
:1027600000F0BAF8FEF7A8FB031E17D1FFF7B2FC82
:1027700014E03B6A181C00F0AFF8FEF79DFB57E72A
:102780003B6A181C00F0A8F8FEF796FB3B6A181C81
:1027900000F002F9031E01D0002300E048E7181CF6
:1027A000BD460AB080BDC04680B586B000AFF860B7
:1027B000B9607A6000237B61FB689B6B3B61FB68BF
:1027C0001B6C002B0ED1FB681B68002B52D1FB68E1
:1027D0005B68181CFEF77CFF031C7B61FB68002212
:1027E0005A6047E07B68002B1BD1FB689968FB6847
:1027F0001B6CBA68081C111C1A1C00F0D3FCFB6887
:102800009A68FB681B6CD218FB689A60FB689A6830
:10281000FB685B689A422DD3FB681A68FB689A6074
:1028200028E0FB68D968FB681B6CBA68081C111C9F
:102830001A1C00F0B7FCFB68DA68FB681B6C5B4293
:10284000D218FB68DA60FB68DA68FB681B689A429A
:1028500007D2FB685A68FB681B6C5B42D218FB68A6
:10286000DA607B68022B05D13B69002B02D03B6903
:10287000013B3B613B695A1CFB689A637B69181CEE
:10288000BD4606B080BDC04680B582B000AF78605E
:1028900039607B681B6C002B1AD07B68DA687B6818
:1028A0001B6CD2187B68DA607B68DA687B685B68CF
:1028B0009A4203D37B681A687B68DA607B68DA68BF
:1028C0007B681B6C3968081C111C1A1C00F06AFC20
:1028D000BD4602B080BDC04680B584B000AF786010
:1028E000FFF706FC0F23FB187A684521525C1A702B
:1028F00016E07B685B6A002B09D07B682433181CC8
:10290000FEF7E0FC031E03D0FEF79EFD00E00DE0A5
:102910000F23FB181B78013BDAB20F23FB181A7048
:102920000F23FB181B785BB2002BE2DC7B6845228F
:10293000FF219954FFF7ECFBFFF7DAFB0E23FB189E
:102940007A684421525C1A7016E07B681B69002B80
:1029500011D07B681033181CFEF7B4FC031E01D0A5
:10296000FEF772FD0E23FB181B78013BDAB20E2333
:10297000FB181A7000E005E00E23FB181B785BB211
:10298000002BE2DC7B684422FF219954FFF7C0FB57
:10299000BD4604B080BDC04680B584B000AF78604D
:1029A000FFF7A6FB7B689B6B002B02D10123FB602A
:1029B00001E00023FB60FFF7ABFBFB68181CBD4682
:1029C00004B080BD80B584B000AF7860FFF790FBA5
:1029D0007B689A6B7B68DB6B9A4202D10123FB60B8
:1029E00001E00023FB60FFF793FBFB68181CBD466A
:1029F00004B080BD80B584B000AF7860396000233A
:102A0000FB6014E00D4BFA68D200D358002B0BD1B9
:102A10000A4BFA68D2003968D150084AFB68DB00DB
:102A2000D3187A685A6005E0FB680133FB60FB68E5
:102A3000072BE7D9BD4604B080BDC046A01B0020CF
:102A400080B586B000AFF860B9607A60FB687B61E2
:102A5000FFF74EFB7B6944229B5CDBB25BB2013328
:102A600003D17B694422002199547B6945229B5CF8
:102A7000DBB25BB2013303D17B694522002199545B
:102A8000FFF746FB7B699B6B002B09D17B692433E5
:102A9000191CBA687B68081C111C1A1CFEF7EEFB97
:102AA0007B69181CFFF718FFBD4606B080BDC04605
:102AB00080B584B000AF78600023FB60334BFB60CF
:102AC0007B689B79002B4FD0304A304B19687B686C
:102AD0001B68DB430B4013602C4A2C4B59687B6806
:102AE0001B68DB430B4053607B681B791A1CFB6837
:102AF0009B18FB60FB68FA6811687A6812680A43E1
:102B00001A60224A214B99687B681B68DB430B40A3
:102B100093601E4A1D4BD9687B681B68DB430B40E2
:102B2000D3607B685B79102B0ED1184A174B9968DC
:102B30007B681B680B439360144A144BD9687B680D
:102B40001B680B43D3601DE0104BFB607B685B7917
:102B50001A1CFB689B18FB60FB68FA6811687A68AE
:102B600012680A431A600DE07B681B791A1CFB6827
:102B70009B18FB60FB68FA6811687A681268D24398
:102B80000A401A60BD4604B080BDC0460004014042
:102B900080B582B000AF7860044B044A11697A684E
:102BA0000A431A61BD4602B080BDC0460004014020
:102BB00080B584B000AF78600F23FB1800221A7034
:102BC0000A4B5B697A68134004D00F23FB1801227B
:102BD0001A7003E00F23FB1800221A700F23FB1852
:102BE0001B78181CBD4604B080BDC04600040140DF
:102BF00080B582B000AF7860024B7A685A61BD46FA
:102C000002B080BD0004014080B582B000AFFB1D62
:102C100000221A7012E0FB1D1A780D4BD200D35C13
:102C2000002B06D1FB1D1B78094ADB00D3185B681B
:102C30009847FB1DFA1D127801321A70FB1D1A7895
:102C4000034BD200D35C022BE5D1BD4602B080BD60
:102C50005400002080B582B000AF78607B681B68AC
:102C60001B7A012B0DD17B681B6802221A727B68CC
:102C70001B685A687B681B681B88101C191CFFF7AF
:102C8000E9F8BD4602B080BD80B582B000AF786083
:102C90007B681B681B7A022B0DD17B681B680122A5
:102CA0001A727B681B685A687B681B681B88101C3B
:102CB000191CFFF7DDF8BD4602B080BDB0B584B089
:102CC00000AF021CFB1D1A70BB1D0A1C1A700023EA
:102CD000FB60BB1D1B78032213409B000F229A4010
:102CE000131CFB601849BB1D1B789B08DBB2181C2A
:102CF000154ABB1D1B789B08DBB202339B009B5817
:102D0000FA68D2431A40831C9B005A500E48BB1DE0
:102D10001B789B08DBB21D1C0B4ABB1D1B789B0854
:102D2000DBB202339B009A58FB1D1978BB1D1B7840
:102D3000032423409B0099400B1C1A43AB1C9B00AF
:102D40001A50BD4604B0B0BD0000014080B58EB041
:102D500000AF786039601023FB1800221A807B686E
:102D60000A331022BA18101C191C00F0E3FA3B6851
:102D70001B687B637B6BFB601023FB181B88022B9B
:102D80000DD10C23FB18181CFFF764FF1023FB1850
:102D900000221A801023FB1801221A800CE00C2359
:102DA000FB18181CFFF770FF1023FB1800221A8075
:102DB0001023FB1802221A801423FB1801221A8107
:102DC0007B681A681423FB185A607B685A681423BE
:102DD000FB181A601423FB180A331A1C1023FB1863
:102DE000101C191C00F0A6FA1423FB18181CFDF780
:102DF00013FBBD460EB080BD80B588B000AF7860D3
:102E000000237B61FEF74CF83F4B1B68002B04D17D
:102E100000F0BCF83C4B01221A607B68002B0DD0FF
:102E200008231A1C7B689B187B607B680722134071
:102E300004D07B680722934308337B607B68002BB8
:102E400056D07B68314A934252D8314BBB61304BEC
:102E50001B68FB6104E0FB69BB61FB691B68FB61EC
:102E6000FB695A687B689A4203D2FB691B68002B96
:102E7000F1D1FA69274B9A423AD0BB691B68082204
:102E80009B187B61FB691A68BB691A60FB695A6809
:102E90007B68D31A08225200934222D9FA697B68D0
:102EA000D318FB60FB695A687B68D21AFB685A60CA
:102EB000FB697A685A60FB685B68BB60144B3B61D6
:102EC00002E03B691B683B613B691B685A68BB6851
:102ED0009A42F6D33B691A68FB681A603B69FA6844
:102EE0001A600D4B1A68FB695B68D21A0A4B1A60AC
:102EF000FDF7E2FF7B69002B01D1FDF7A9F97B69A2
:102F0000181CBD4608B080BD9C1B00205B1900004A
:102F10008C1B0020941B00206400002080B586B02C
:102F200000AF78607B683B617B68002B27D008236B
:102F30005B423A69D3183B613B69FB60FDF7B0FF28
:102F4000FB685B68BB600F4B7B6102E07B691B68C1
:102F50007B617B691B685A68BB689A42F6D37B69C0
:102F60001A68FB681A607B69FA681A60FB685A681D
:102F7000054B1B68D218044B1A60FDF79DFFBD4638
:102F800006B080BD8C1B00206400002080B582B09C
:102F900000AF0D4B072293437B600C4B7A681A609D
:102FA0000A4B00225A600A4B0A4A5A60084B002218
:102FB0001A607B683B603B68064A5A603B68044A7B
:102FC0001A60BD4602B080BD300200208C1B00207C
:102FD000941B00205C19000080B584B000AF7860BD
:102FE0000023FB607B689B78002B39D0234A7B68E9
:102FF0001B789B08DBB2C0339B009B58FB607B684F
:103000001B781A1C03231340DB00FF229A40131C79
:10301000DA43FB681340FB607B685B789B01FF220F
:103020001A407B681B78191C03230B40DB009A4075
:10303000131CFA681343FB6010497B681B789B08DC
:10304000DBB2C0339B00FA685A500C4B7A68127896
:10305000111C1F220A40012191400A1C1A600AE03B
:1030600006497B681B781A1C1F23134001229A40D3
:10307000131C80228B50BD4604B080BD00E100E0EF
:10308000002243088B4274D303098B425FD3030AA7
:103090008B4244D3030B8B4228D3030C8B420DD3BA
:1030A000FF22090212BA030C8B4202D31212090248
:1030B00065D0030B8B4219D300E0090AC30B8B4286
:1030C00001D3CB03C01A5241830B8B4201D38B0334
:1030D000C01A5241430B8B4201D34B03C01A5241D9
:1030E000030B8B4201D30B03C01A5241C30A8B421C
:1030F00001D3CB02C01A5241830A8B4201D38B0207
:10310000C01A5241430A8B4201D34B02C01A5241AA
:10311000030A8B4201D30B02C01A5241CDD2C3091C
:103120008B4201D3CB01C01A524183098B4201D398
:103130008B01C01A524143098B4201D34B01C01A83
:10314000524103098B4201D30B01C01A5241C308FB
:103150008B4201D3CB00C01A524183088B4201D36A
:103160008B00C01A524143088B4201D34B00C01A56
:103170005241411A00D20146524110467047FFE7C2
:1031800001B5002000F00CF802BDC0460029F7D0C0
:1031900003B5FFF775FF0EBC4243891A1847C046B6
:1031A0007047C04670B50F2A32D9041C0C430B1C63
:1031B000A40731D1151C041C103D2D0901352D012A
:1031C00049191E6826605E6866609E68A660DE68B3
:1031D0001033E66010349942F3D10F2345191340A0
:1031E000032B1BD91C1F0023A4080134A400CE58B4
:1031F000EE500433A342FAD1ED18C91803231A4044
:1032000005D00023CC5CEC5401339342FAD170BD5D
:10321000051C002AF5D1FAE7051CF2E71A1CF8E7AD
:1032200070B583073FD0541E002A3BD0CEB2031C9A
:10323000032503E0621E002C34D0141C01335A1EF7
:1032400016702B42F6D1032C24D9FF250D402A02FB
:1032500015432A0415430F2C11D9261C103E36099C
:10326000013636011A1C9B19156055609560D560B2
:1032700010329342F8D10F221440032C0AD9261F92
:10328000B6080136B6001A1C9B1920C29342FCD125
:1032900003221440002C05D0C9B21C191970013347
:1032A000A342FBD170BD141C031CCCE7024670B5D1
:1032B0000A4392072AD11E4DEE0104C808C9541BC7
:1032C0009443344017D0D0B2D9B2401A21060143FA
:1032D00010D190B299B2401A210401430AD11002D0
:1032E0001902000A090A401A2102014302D1100EF4
:1032F000190E401A70BD9A42DFD010BA19BA88422E
:1033000001D9012070BD0020C04370BD02780B7848
:1033100001300131002A09D09A4207D102780B7896
:1033200001300131002A01D09A42EFD0D01A70BD8D
:1033300001010101031C0A7801311A700133002ACE
:10334000F9D1704710B5830727D00378002B26D01A
:10335000031C032102E01A78002A1CD001330B421F
:10336000F9D119680F4A104C8A188A4322420FD1AA
:10337000043319680B4A8A188A43224208D104335D
:103380001968084A8A188A432242F1D000E00133C2
:103390001A78002AFBD1181A10BD031CE1E700209F
:1033A000FAE7C046FFFEFEFE80808080546D7220EA
:1033B00053766300F0070008F0070008F0070008E4
:1033C000820800084C08000876080008F00700088A
:1033D000F0070008820800084C080008546D72517C
:1033E0000000000049444C4500000000401800085F
:1033F00006180008141800082018000828180008EB
:103400005C19000822190008301900083C1900084E
:10341000441900084C454450433800004C45445082
:04342000433900002C
:103424000500000000000000B9020008E1020008E5
:103434003103000800000000490100086D01000884
:103444008D010008000000200000000000000000C2
:1034540000000000006CDC0200000000000000001E
:103464000102030406070809AAAAAAAA1434000838
:103474001C34000800000000D1090008020000000C
:08348400000000005C190000CB
:0400000508000000EF
:00000001FF
